:020000040800F2
:10000000100400209D01000801020008F901000809
:10001000FD010008F10100082504000800000000AF
:1000200000000000000000000000000009020008BD
:10003000F501000800000000050200080D0200089C
:10004000B7010008B7010008B7010008B7010008B0
:10005000B7010008B7010008B7010008B7010008A0
:10006000B7010008B7010008B7010008B701000890
:10007000B7010008B7010008B7010008B701000880
:10008000B7010008B7010008B7010008B701000870
:10009000B7010008B7010008B7010008B701000860
:1000A000B7010008B7010008B7010008B701000850
:1000B000B7010008B7010008B7010008B701000840
:1000C000B7010008B7010008B7010008B701000830
:1000D000B7010008B7010008B7010008B701000820
:1000E000B7010008B7010008B7010008B701000810
:1000F000B7010008B7010008B7010008B701000800
:10010000B7010008B7010008B7010008B7010008EF
:10011000B7010008B7010008B7010008B7010008DF
:10012000B7010008B7010008B7010008B7010008CF
:10013000B7010008B7010008B7010008B7010008BF
:10014000B7010008B7010008B7010008B7010008AF
:10015000B7010008B7010008B7010008B70100089F
:10016000B7010008B7010008B7010008B70100088F
:10017000B7010008B7010008B7010008000000003F
:10018000B7010008B7010008DFF80CD000F018F83C
:1001900000480047FD04000810040020064880477E
:1001A00006480047FEE7FEE7FEE7FEE7FEE7FEE75C
:1001B000FEE7FEE7FEE7FEE71102000889010008FE
:1001C0001CB509480090094801900546009C06E0CE
:1001D000E06840F0010394E8070098471034AC420F
:1001E000F6D3FFF7D5FF0000D8050008F805000892
:1001F000FEE70000FEE70000FEE70000FEE700006B
:10020000FEE70000FEE70000FEE7000000F016B980
:1002100082B04EF68851CEF200010A6843F608001B
:1002200042F47002C4F202000A6050F8081C41F067
:10023000010140F8081C00BF50F8081C8907FBD5D5
:10024000016801F00C01082966D100210191019A91
:100250004F2A05D8019A01320192019A502AF9D306
:1002600002680092009A22F0F0020092009A42F096
:1002700080020092009A0260019101994F2905D8ED
:1002800001990131019101995029F9D30168009137
:10029000009921F0F0010091009941F09001009146
:1002A0000099016000210191019A4F2A06D800BFF0
:1002B000019A01320192019A502AF9D30268009200
:1002C000009A22F0F0020092009A42F0A0020092FE
:1002D000009A0260019101994F2905D801990131D5
:1002E000019101995029F9D301680091009921F0F9
:1002F000F0010091009941F0B00100910099016076
:100300000021019101994F2906D800BF01990131BF
:10031000019101995029F9D3016821F0030101608D
:1003200000210191019A12097C2A06D8019A013212
:100330000192019AB2F5FA6FF8D350F8082C4FF6F3
:10034000FF73CFF6F6631A4040F8082C50F8082CDB
:1003500022F4802240F8082C0160026843F2100267
:10036000C2F2004240F8042C416050F8081C41F4ED
:10037000803140F8081C4FF6FF7100BF50F8082C80
:10038000920303D40029A1F10101F7D150F8081C10
:100390008903FBD5826B47F2000142F08052C4F220
:1003A000000182630A6842F440420A600268026007
:1003B000026842F400420260026842F4A052026005
:1003C00045F20842C0F2407240F8042C50F8082C64
:1003D00042F0807240F8082C50F8082C9201FBD5AE
:1003E0000A6842F480320A604A68D203FCD50A687F
:1003F00042F400320A6000BF4A689203FCD50168EB
:100400000191019921F003010191019941F002014B
:1004100001910199016000BF01680907FCD502B094
:1004200070470000FEE7000040F20801C2F2000140
:10043000086000BF08680028FCD1704740F208003F
:10044000C2F200000168002908BF70470168013945
:10045000016070471823002A08BF2823C150704745
:100460002DE9F041D0F800E0D0F80CC000244FF0A6
:100470000308002605E000BF0136102E04F1020437
:1004800012D023FA06F7FF07F6D008FA04F72EEA8F
:10049000070E01FA04F54EEA050E2CEA070702FAE8
:1004A00004F547EA050CE7E7C0F800E0C0F80CC027
:1004B000BDE8F0810129416814BF994319434160A7
:1004C000B0B5D0F808C000214FF0030E002404E0BE
:1004D0000134102C01F102010CD023FA04F5ED07D0
:1004E000F6D00EFA01F52CEA050C02FA01F54CEAF9
:1004F000050CEDE7C0F808C0B0BD000040F20044B4
:10050000C4F2020400F034F840F6014000F020F894
:100510002046012100220423FFF7A2FF20460021EC
:1005200002220423FFF7C6FF204604210022FFF722
:1005300091FF4FF4FA70FFF777FF20460421012264
:10054000FFF788FF4FF4FA70FFF76EFFECE700004B
:1005500043F6000300F01F018009C4F202034FF0CC
:10056000010CC2580CFA01F11143C1507047000050
:1005700040F20000C2F20000006844F6D351C1F21C
:100580006201A0FB01014FF0FF3000EB9110B0F1D0
:10059000807F11D24EF21001CEF2000148604EF67B
:1005A0002350CEF20000F0220270002207238A605E
:1005B0000B600270704700BFFEE702E008C8121F20
:1005C00008C1002AFAD170477047002001E001C13C
:1005D000121F002AFBD17047F80500080000002018
:1005E00008000000BA050008000600080800002006
:1005F00008040000CA050008007A030A0000000091
:040000050800018965
:00000001FF
